:020000040800F2
:10400000800400207D410008CD410008C94100081E
:10401000CB410008C54100089D4200080000000097
:10402000000000000000000000000000F341000854
:10403000C741000800000000F1410008F5410008F8
:1040400097410008974100089741000897410008F0
:1040500097410008974100089741000897410008E0
:1040600097410008974100089741000897410008D0
:1040700097410008974100089741000897410008C0
:104080009741000897410008000000009741000890
:1040900097410008974100089741000897410008A0
:1040A0009741000897410008974100089741000890
:1040B0009741000800000000974100080000000040
:1040C0009741000800000000974100089741000850
:1040D0009741000897410008974100080000000040
:1040E0000000000000000000974100089741000810
:1040F0009741000897410008974100089741000840
:1041000097410008000000000000000097410008EF
:10411000000000000000000000000000000000009F
:10412000000000000000000000000000000000008F
:10413000000000000000000000000000000000007F
:10414000000000000000000000000000000000006F
:10415000000000000000000097410008974100089F
:104160009741000897410008DFF80CD000F018F8DC
:1041700000480047B55400088004002006488047E6
:1041800006480047FEE7FEE7FEE7FEE7FEE7FEE73C
:10419000FEE7FEE7FEE7FEE7F94100086941000897
:1041A000064C074D06E0E06840F0010394E8070084
:1041B00098471034AC42F6D3FFF7DAFF30670008B7
:1041C00050670008FEE77047FEE7FEE77047000013
:1041D0000907090E002803DA00F00F00024A00E088
:1041E000024A81547047000014ED00E000E400E052
:1041F0007047704700F026B9244808B5016841F0BF
:104200000101016001688907FCD5416841F0800126
:104210004160002200920099491C00915029FAD374
:10422000416841F09001416000920099491C009161
:104230005029FAD3416821F0030141600168144B11
:10424000194001604168134B194041604168124BAD
:1042500019404160416821F440014160C16A21F088
:104260000F01C162016B40F2431399430163416B3B
:1042700021F001014163826001F01CFABDE80840B1
:1042800000214FF0006001F079B9000000100240F9
:10429000FFFFF2FE0C00FF08FFFFC0F7FEE702E0A1
:1042A00008C8121F08C1002AFAD1704770470020C1
:1042B00001E001C1121F002AFBD170477CB502202A
:1042C0008DF804008DE04FF6FF74204600F044FFA7
:1042D00048A00090234600223221142000F0E8FC80
:1042E00049A06421009023460022084600F0E0FC2B
:1042F0004FF47A76304600F09DF8002000F02CFF55
:104300003CA00090002322463221142000F0D0FC73
:104310003FA06421009000232246084600F0C8FC1C
:10432000304600F087F84FF47845284600F014FF37
:1043300030A000902B4622463221142000F0B8FC19
:1043400035A0642100902B462246084600F0B0FCC0
:10435000304600F06FF84FF4FC64204600F0FCFE9D
:1043600024A0009023461F223221142000F0A0FC3C
:104370002AA06421009023461F22084600F098FCE2
:10438000304600F057F81F2000F0E6FE19A04FF667
:10439000E07400901F2322463221142000F088FC94
:1043A00020A0642100901F232246084600F080FCD4
:1043B000304600F03FF8204600F0CEFE0DA0009001
:1043C00023461F223221142000F072FC17A0642122
:1043D000009023461F22084600F06AFC304600F099
:1043E00029F89DF80400411E8DF8041000287FF480
:1043F0006AAF7CBD436F6C6F7220446973706C61EF
:104400007920546573740000576869746500000072
:10441000426C61636B000000526564004772656521
:104420006E000000426C75650000000059656C6C00
:104430006F7700000249086008680028FCD17047C7
:104440000000002003480168002902D00168491ECD
:10445000016070470000002038B500248DF800404E
:104460001F2000F079FE1EA000901F234FF6FF7260
:104470001421022000F01CFC4FF4FC60A0230090EB
:104480001A465A213C2000F095FA7823C822A02130
:104490001420009400F0D6FA7D23CD22A521192006
:1044A000009400F0CFFA8223D222AA211E20009489
:1044B00000F0C8FA4FF6E070009046236E223221D9
:1044C0000A2000F025FE4FF478435022A0217820E6
:1044D00000F03AFBBDE838404FF47A70FFF7AABF0E
:1044E0002020475549204472617720546573742019
:1044F0000000000070B5054600241EE0C820FFF74C
:1045000099FF002000F0DCF9012000F0D9F9022029
:1045100000F0D6F9032000F0D3F9C820FFF78AFF96
:10452000002000F0C1F9012000F0BEF9022000F0E7
:10453000BBF9032000F0B8F9641CAC42DED370BDB7
:104540007CB500208DF804001F2000F005FE55A06A
:104550004FF6FF7400901F2322460A21022000F02C
:10456000A7FB58A000901F2322461E21022000F026
:104570009FFB5CA000901F2322463221022000F006
:1045800097FB5FA000901F2322464C219DF804005A
:1045900000F08EFB62A000901F2322465C219DF854
:1045A000040000F085FB65A000901F2322466C21CB
:1045B0009DF8040000F07CFB67A000901F232246BA
:1045C0007C219DF8040000F073FB6AA000901F237B
:1045D00022468C219DF8040000F06AFB6CA000903C
:1045E0001F232246B0219DF8040000F061FB70A05B
:1045F00000901F232246C0219DF8040000F058FBC4
:1046000072A000901F232246D0219DF8040000F0E4
:104610004FFB75A000901F232246E0219DF8040067
:1046200000F046FB77A000901F232246F0219DF862
:10463000040000F03DFB7AA000901F2322464FF4B7
:104640008C719DF8040000F0E7FB4FF47A75284662
:10465000FFF7F0FE1F2000F07FFD79A100911F23DE
:1046600022460A21102000F023FB79A100911F238C
:1046700022461E21102000F0CFFB71A000901F23C6
:1046800022463221102000F013FB71A000901F235E
:1046900022464621102000F0BFFB2846BDE87C40A2
:1046A000FFF7C8BE20476967614465766963652086
:1046B00053656D69636F6E647563746F7220496EC4
:1046C000632E000020202D2D2047443332463178C0
:1046D0003020536572696573204D4355202D2D2080
:1046E000202000002020202020474433324631354E
:1046F00030525F4541564C5F56312E33202000002A
:1047000020202020202D2D2D2D20474433324631CE
:104710003330202D2D2D2D202020202020000000A2
:1047200020202020202020202047443332463133CF
:10473000304678202020202020000000202020204B
:104740002020202020474433324631333047582040
:1047500020202020200000002020202020202020B9
:104760002047443332463133304378202020202004
:10477000200000002020202020202020204744333B
:104780003246313330527820202020202000000093
:1047900020202020202D2D2D2D204744333246313E
:1047A0003530202D2D2D2D20202020202000000010
:1047B000202020202020202020474433324631353D
:1047C000304678202020202020200000202020209B
:1047D000202020202047443332463135304B5820AA
:1047E0002020202020200000202020202020202009
:1047F0002047443332463135304378202020202072
:1048000020000000202020202020202020474433AA
:104810003246313530527820202020202000000000
:104820002020536D61727465722120466173746536
:1048300072212043686561706572212020000000AC
:104840002020202020202020B2E2CAD420202000D6
:1048500020202020202020B2E2CAD42020200000E6
:1048600070B504460F4830F8140000F093FE0D4D6B
:1048700000221A35A5F1100655F8243056F8240008
:10488000012100F054F855F8243056F82400032292
:10489000002100F070F856F8241055F824008862C2
:1048A00070BD0000220000200449044A103A51F86B
:1048B000201052F820008162704700003C00002068
:1048C0000449044A103A51F8201052F8200081613E
:1048D000704700003C000020F0B5046A456A0023E0
:1048E0004FF0010C4FF00F0E0CFA03F6164206D0F3
:1048F0009E000EFA06F7BC4301FA06F73C435B1C28
:104900009BB2082BF0D308230CFA03F6164207D00B
:104910009E00203E0EFA06F7BD4301FA06F73D431E
:104920005B1C9BB2102BEFD304624562F0BD2DE9F6
:10493000F0470568C66800244FF0010A4FF00309EC
:104940000AFA04F71F420ED0670009FA07FC25EAAD
:104950000C0526EA0C0601FA07F802FA07FC48EAF9
:1049600005054CEA0606641CA4B2102CE8D30560C9
:10497000C660BDE8F087F0B50129416818D09943B9
:104980004160846800210126032706FA01F51D42D3
:1049900008D04D0007FA05FC24EA0C0402FA05FCD5
:1049A0004CEA0404491C89B21029EED38460F0BD9E
:1049B0001943E5E72DE9F84F0F46214980462020AD
:1049C0001C4608604EF67D7B08EB02063B464046DF
:1049D000B2B21946CDF800B000F02EFB3C44601C8A
:1049E000751E42F6651A83B207F10109AAB21FFAD1
:1049F00089F1A8B2CDF800A000F01EFBA3B2B2B2BC
:104A0000A1B24046CDF800A000F016FB4246A3B28A
:104A100039461046CDF800B000F00EFB0A98009021
:104A2000641E08F10100A3B2AAB21FFA89F180B294
:104A300000F002FB0249202010390860BDE8F88F21
:104A4000281400482DE9F84F3E4C89468246202123
:104A50000A98216009EB03040AEB02064EF67D7BFF
:104A600004F1010809F10107751E20B1012821D0C8
:104A7000022848D041E04EF67D704B460090B2B21D
:104A80001946504600F0D8FA42F6651B1FFA88F323
:104A9000AAB2B9B2A8B2CDF800B000F0CDFAA3B274
:104AA000B2B2A1B25046CDF800B000F0C5FA4EF651
:104AB0007D701BE042F665104B460090B2B219467D
:104AC000504600F0B9FA1FFA88F3AAB2B9B2A8B2F8
:104AD000CDF800B000F0B0FAA3B2B2B2A1B2504625
:104AE000CDF800B000F0A8FA42F6651000905246EA
:104AF000A3B24946104600F09FFA1249202010390F
:104B00000860BDE8F88F4FF6FF7B4B46B2B21946FE
:104B10005046CDF800B000F08FFA1FFA88F3AAB221
:104B2000B9B2A8B2CDF800B000F086FAA3B2B2B222
:104B3000A1B25046CDF800B000F07EFACDF800B03A
:104B4000D5E70000281400482DE9FF5F0E46074610
:104B500015466842032101EB4008544900242020F7
:104B6000086058E006EB050907EB040B1FFA89F112
:104B70001FFA8BF0039A00F0BFFAA7EB040A1FFAA2
:104B800089F11FFA8AF0039A00F0B6FAA6EB05093C
:104B90001FFA89F11FFA8BF0039A00F0ADFA1FFAA1
:104BA00089F11FFA8AF0039A00F0A6FA06EB0409CD
:104BB00007EB050B1FFA89F11FFA8BF0039A00F03F
:104BC0009BFAA7EB050A1FFA89F11FFA8AF0039AEC
:104BD00000F092FAA6EB04091FFA89F11FFA8BF094
:104BE000039A00F089FA1FFA89F11FFA8AF0039AF2
:104BF00000F082FAB8F1000F04DA08EB840000F14B
:104C0000060806E0611B08EB81006D1E00F10A0832
:104C1000ADB2641CA4B2AC42A4D3AC423FD106EB0B
:104C2000050907EB04081FFA89F11FFA88F0039AB7
:104C300000F062FA1FFA89F11FFA88F0039A00F077
:104C40005BFAA6EB05091FFA89F11FFA88F0039AAF
:104C500000F052FA381B1FFA89F180B2039A00F073
:104C60004BFA06EB040807EB05091FFA88F11FFA57
:104C700089F0039A00F040FA7D1B1FFA88F1A8B270
:104C8000039A00F039FA341BA1B21FFA89F0039A93
:104C900000F032FAA1B2A8B2039A00F02DFA03494B
:104CA000202010390860BDE8FF9F0000281400484C
:104CB0002DE9FE4F0F46554904460190DDF830803E
:104CC00020209A469346086095E0802835D20D282A
:104CD00004D0202806D9203880B204E01037BFB2B3
:104CE000019C27E000208146002606EB09100025E4
:104CF00000904749095C8020E840014205D0B8197E
:104D000081B2601980B25A4606E0D34506D0B81980
:104D100081B2601980B2524600F0EEF96D1CEDB21E
:104D2000082D01D20098E4E7761CF6B2102EDCD3F1
:104D30000834A4B208F101085DE04FF00009C9EBA6
:104D4000C900344900EB800098F800200B5C9342C6
:104D500046D108440290417898F8010081423FD141
:104D600000250298002600EB45000090C1788020C5
:104D7000F040014205D0781981B2A01980B25A469C
:104D800006E0D34506D0781981B2A01980B2524608
:104D900000F0B2F9761CF6B2082E01D20098E5E7D1
:104DA0000026009801798020F040014206D0781951
:104DB00081B2A019083080B25A4607E0D34507D027
:104DC000781981B2A019083080B2524600F094F9E7
:104DD000761CF6B2082EE4D36D1CEDB2102DC0D3B4
:104DE00009F101001FFA80F9B9F1640FA7D310345B
:104DF00008F10208A4B298F8000000287FF465AF1B
:104E00000249202010390860BDE8FE8F28140048B0
:104E100096570008086500082DE9FC5F0E465F49BB
:104E200005462020DDF830B0984691460860A9E09C
:104E300080282ED2202802D9203880B200E000201D
:104E40008246002707EB0A10002400905449095CB1
:104E50008020E040014205D0F01981B2281980B2CB
:104E60004A4606E0C14506D0F01981B2281980B241
:104E7000424600F041F9641CE4B2082C01D20098CB
:104E8000E4E77F1CFFB2102FDCD30BF1010B0835D8
:104E900077E000200090C0EB0010424900EB80005A
:104EA0009BF800200B5C934262D10844019041784A
:104EB0009BF8010081425BD10024019904EB44007E
:104EC000002701EB000A80209AF80310F840014205
:104ED00005D0301981B2E81980B24A4606E0C145D2
:104EE00006D0301981B2E81980B2424600F004F9C8
:104EF0007F1CFFB2082FE6D300279AF80410802009
:104F0000F840014206D0301981B2E819083080B269
:104F10004A4607E0C14507D0301981B2E819083088
:104F200080B2424600F0E8F87F1CFFB2082FE4D3BD
:104F300000279AF805108020F840014206D0301969
:104F400081B2E819103080B24A4607E0C14507D067
:104F5000301981B2E819103080B2424600F0CCF826
:104F60007F1CFFB2082FE4D3641CE4B2182CA4D336
:104F70000098401C80B2009064288CD30BF1020B87
:104F80001835ADB29BF8000000287FF451AF0349FB
:104F9000202010390860BDE8FC9F0000281400485C
:104FA00096570008B76500082DE9FF4F81B0204AE9
:104FB0000F46804620210E9811601E49002601EB05
:104FC000C0104FF0800B00900098002500EB860A7F
:104FD00000241AF805902BFA04F010EA090F07D004
:104FE000B81981B208EBC500204480B2039A0AE0E8
:104FF000DDE90301884208D0B81981B208EBC50089
:10500000204480B2049A00F077F8641CE4B2082CC3
:10501000E1D36D1CEDB2042DDAD3761CF6B2202E4E
:10502000D2D3034920201039086005B0BDE8F08FC5
:1050300028140048875D00082DE9F84F0E462D49D9
:10504000074620209846144608603146384600F04E
:10505000F9F9E51BA8EB06044FF0FF3002D44FF03E
:10506000010B01E083466D42002C02DB4FF0010A88
:1050700001E08246644260004FEA45090090A54283
:1050800019DD441B002012E0314638460A9A00F030
:1050900033F8002C04DB06EB0A00A4EB090486B20B
:1050A0000098044407EB0B0087B208F1010080462A
:1050B000A842E9DD18E0A9EB0405002011E0314623
:1050C00038460A9A00F018F8002D04DB00982D1AD3
:1050D00007EB0B0087B206EB0A0086B24D4408F1DD
:1050E00001008046A042EADD024920201039086014
:1050F000BDE8F88F2814004810B5144600F0A2F956
:10510000200A00F0B5F9E0B2BDE8104000F0B0B9F7
:105110002DE9F04717460F4A4FF02009DDF820A08F
:105120001E4688460546C2F800900AE0444605E05F
:10513000A1B2A8B25246FFF7DFFF641CB442F7DB0E
:105140006D1CBD42F2DB03491039C1F80090BDE887
:10515000F0870000281400482DE9F0470746002199
:1051600040F23F13EF22084600F040F911490820B1
:10517000086011494FF02008C1F800800F4E00254B
:105180004FF4A0794FEA172A00245146304600F028
:1051900087FAF9B2304600F083FA641CF02CF4D39D
:1051A0006D1C4D45F0D304491039C1F80080BDE8AD
:1051B000F08700001808004828140048003001401B
:1051C00070B500F0F5F98748202404608648102562
:1051D00005606420FFF72EF98348103805603220FF
:1051E000FFF728F9CB2000F059F9392000F040F9F9
:1051F0002C2000F03DF9002000F03AF9342000F0B6
:1052000037F9022000F034F9CF2000F047F90020F0
:1052100000F02EF9C12000F02BF9302000F028F921
:10522000E82000F03BF9852000F022F9002000F092
:105230001FF9782000F01CF9EA2000F02FF9002077
:1052400000F016F9002000F013F9ED2000F026F927
:10525000642000F00DF9032000F00AF9122000F09C
:1052600007F9812000F004F9F72000F017F9202059
:1052700000F0FEF8C02000F011F9232000F0F8F84B
:10528000C12000F00BF9102000F0F2F8C52000F06A
:1052900005F93E2000F0ECF8282000F0E9F8C720DE
:1052A00000F0FCF8862000F0E3F8362000F0F6F875
:1052B000482000F0DDF83A2000F0F0F8552000F02A
:1052C000D7F8B12000F0EAF8002000F0D1F818205B
:1052D00000F0CEF8B62000F0E1F8082000F0C8F8A1
:1052E000822000F0C5F8272000F0C2F8F22000F07C
:1052F000D5F8002000F0BCF8262000F0CFF80120FF
:1053000000F0B6F8E02000F0C9F80F2000F0B0F887
:10531000312000F0ADF82B2000F0AAF80C2000F0AE
:10532000A7F80E2000F0A4F8082000F0A1F84E2005
:1053300000F09EF8F12000F09BF8372000F098F87C
:10534000072000F095F8102000F092F8032000F0FC
:105350008FF80E2000F08CF8092000F089F800206A
:1053600000F086F8E12000F099F8002000F080F8C5
:105370000E2000F07DF8142000F07AF8032000F0F1
:1053800077F8112000F074F8072000F071F8312050
:1053900000F06EF8C12000F06BF8482000F068F8CB
:1053A000082000F065F80F2000F062F80C2000F0F3
:1053B0005FF8312000F05CF8362000F059F80F203B
:1053C00000F056F8112000F069F87820FFF732F865
:1053D000292000F063F82C2000F060F80148103814
:1053E000046070BD28140048280800482DE9F041E9
:1053F0000E4613494FF020081C4615460746C1F8D3
:1054000000802A2000F04AF8F9B2380A00F03CF88F
:10541000E9B2280A00F038F82B2000F03FF8F1B28A
:10542000300A00F031F8E1B2200A00F02DF82C200B
:1054300000F034F802491039C1F80080BDE8F0816D
:105440002814004870B505460C462A2000F026F8BE
:10545000E9B2280A00F018F82B2000F01FF8E1B29A
:10546000200A00F011F8BDE870402C2000F016B8BA
:10547000034B08221A600146024800F011B90000EF
:10548000180800480030014010B50C46FFF7F0FF47
:105490002046BDE81040FFF7EBBF0000034B082299
:1054A0001A600146024800F0FBB8000028080048D6
:1054B000003001404FF48041480300F05FF800F0F5
:1054C0004FF900F02DF90120FFF714F840F21250C7
:1054D00000F060F840F2135000F05CF840F2165013
:1054E00000F058F8FFF76CFE1F20FFF735FEFFF7BE
:1054F00027F800F005F8FEF7AFFFFEF7DFFEF3E751
:105500002DE9F84300241F20FFF726FE15A0009088
:105510001F234FF6E07214211020FFF77DFC0325B6
:10552000154F32264FF6FF78B4FBF5F006EB40112D
:105530003A1905FB1040527800EB8000009206EB10
:10554000C0001F234246FFF72FFD6420FEF772FFC5
:10555000641CE4B20A2CE7D3BDE8F8434FF47A7038
:10556000FEF768BF4E756D20446973706C617920D9
:10557000546573740000000070000020034A11405D
:10558000014303480160BFF34F8F704780FFFF1F47
:1055900008ED00E0054901EB90110A6800F01F03D7
:1055A0000120984002430A6070470000001002404A
:1055B00010B588B040F20C60FFF7ECFF234C3822A6
:1055C00000212046FFF788F93823002202212046D7
:1055D000FFF7ADF93823032200212046FFF7CBF96E
:1055E0001B4C1823002201212046FFF7A0F91823A5
:1055F000032200212046FFF7BEF9164C202300228B
:1056000001212046FFF793F92023032200212046A1
:10561000FFF7B1F900204FF48271CDE900100321AA
:1056200005914FF40071CDE902010B4C06900490F6
:105630006946204600F01DF80721204600F00EF8CC
:10564000204600F011F808B010BD0000000400482A
:10565000000800480014004800300140026842F48D
:105660000052026001617047016841F04001016031
:10567000704702680B6802F4415213434A681A43A8
:105680008B681343CA681A430B6913434A698969D3
:105690001A4311430160C16921F40061C16170477F
:1056A00082689207FCD5C1608168C907FCD0C068D8
:1056B000C0B27047184900200A6842F480320A607C
:1056C000CB140A68401C12F4003F01D19842F8D173
:1056D000086880031FD54868486048684860486883
:1056E000486048680D4A10404860486840F4E81037
:1056F0004860086840F08070086008688001FCD548
:10570000486820F003004860486840F002004860A4
:1057100048680007FCD5704700100240FFFFC277C1
:1057200070B50E484FF47A710068B0FBF1F0401E7E
:10573000B0F1807F11D24FF0E024606165170F2136
:105740002846FEF745FD0020A0610720206128467D
:10575000BDE870400021FEF73BBDFEE704000020DD
:1057600010B50020FFF77CF80120FFF779F8022040
:10577000FFF776F80320FFF773F80020FFF794F89F
:105780000120FFF791F80220FFF78EF8BDE81040E6
:105790000320FFF789B800000000000000000000AF
:1057A0000000000000000010101010101010101069
:1057B00000001010000000006C6C242400000000A9
:1057C0000100000000000024242424FE484848482A
:1057D000FC909090900000103C549290503814121D
:1057E0001292547810000000225C94A848101024F3
:1057F0002A5254880000000030484850206E5494CB
:105800008C888A7400000000303010100000000006
:1058100000000000000000040810102020202020BC
:1058200020101008040000804020201010101010DC
:105830001020204080000000000010543810385420
:1058400010000000000000000010101010FE1010EA
:105850001010000000000000000000000000000028
:1058600000001010200000000000000000FE0000FA
:105870000000000000000000000000000000000028
:105880000000101000000000040408081010202080
:105890004040808000000000384482828282828200
:1058A0008282443800000000107010101010101098
:1058B0001010107C00000000384482820408102080
:1058C000408284FC00000000384482020438040254
:1058D0000282443800000000040C141424244444C0
:1058E000FE04040E00000000FC808080B8C4820228
:1058F00002828478000000003C428280B8C4828228
:1059000082824438000000007E42820404080808B5
:105910001010101000000000384482824438448285
:105920008282443800000000384482828282463AF3
:105930000282443800000000000010100000000047
:105940001010000000000000000010100000000017
:105950000010102000000000000006186080601891
:10596000060000000000000000000000FE0000FE35
:1059700000000000000000000000C0300C020C30ED
:10598000C0000000000000384482820204081010A9
:1059900010001010000000003844829AAAAAAAAA97
:1059A000AA9680423C000000101010282828444489
:1059B0007C4444EE00000000FC424242427C4242F1
:1059C000424242FC000000003C4482808080808093
:1059D0008282443800000000F8444242424242427F
:1059E000424244F800000000FC444240447C4440F1
:1059F000404244FC00000000FC444240447C4440DF
:105A0000404040F000000000344C828080808E8452
:105A100084844C3400000000EE444444447C4444FC
:105A2000444444EE000000007C10101010101010D0
:105A30001010107C000000003E0808080808080844
:105A40000888887000000000EE44484850605048C4
:105A5000484444EE00000000E040404040404040E8
:105A6000404244FC00000000C6446C6C6C5454542A
:105A7000444444EE00000000CE4464646454544C3A
:105A80004C4C44E4000000003844828282828282CE
:105A90008282443800000000F84442424244784088
:105AA000404040E0000000003844828282828282CE
:105AB00082BA443C02000000F04844444448704824
:105AC000444444E6000000003C44828040300C0224
:105AD00002824478000000007C54921010101010D4
:105AE0001010103800000000EE4444444444444484
:105AF0004444443800000000EE444444442828282C
:105B00002810101000000000EE4454545454545413
:105B10002828282800000000EE44442828101028D7
:105B2000284444EE00000000EE44442828281010C9
:105B300010101038000000007E4484080810202057
:105B4000408284FC0000001C101010101010101077
:105B5000101010101C000000EE445454FE54545415
:105B600028282828000000701010101010101010A5
:105B70001010101070000030488400000000000079
:105B80000000000000000000000000000000000015
:105B900000000000FE0000402000000000000000A7
:105BA0000000000000000000000000007884047C79
:105BB00084848C7600000000C0404040586442421B
:105BC0004242645800000000000000003844808019
:105BD00080804438000000000C040404344C8484A9
:105BE00084844C360000000000000000788484FCAF
:105BF000808084780000000018242020F8202020D5
:105C00002020207000000000000000003A4444788A
:105C1000807C82827C000000C04040405864444444
:105C2000444444EE0000000010100000301010103A
:105C3000101010380000000010100000301010107C
:105C40001010109060000000C04040405C48506060
:105C5000504844EE000000003010101010111010D9
:105C6000101010390000000000000000ACD2929229
:105C7000929292D6000000000000000058E44444D4
:105C8000444444EE000000000000000038448282DA
:105C9000828244380000000000000000D8644242C4
:105CA00042645840E000000000000000364C84844C
:105CB000844C34040E000000000000006C302020F2
:105CC0002020207000000000000000007888846020
:105CD000188444780000000000202020F8202020B4
:105CE000202024180000000000000000C6424242AC
:105CF0004242463A0000000000000000EE44442802
:105D0000282810100000000000000000EE44445459
:105D1000542828280000000000000000EE4428104D
:105D2000102844EE0000000000000000EE4444286B
:105D3000281010A0C0000000000000007E44881061
:105D4000204284FC0000000C101010101060101095
:105D5000101010100C000010101010101010101067
:105D600010101010100000C020202020201820202B
:105D700020202020C00000000000000000728C00E5
:105D80000000000000000000000000001FE0000014
:105D90003FF000003FF000001FE00001800600031C
:105DA000C00F0003C00F0003C00F0003C00F0003AB
:105DB000C00F0003C00F0003C00F0003C00F00039B
:105DC00000030000000000000000000000000003CD
:105DD00000030003C00F0003C00F0003C00F000347
:105DE000C00F0003C00F0003C00F0003C00F00036B
:105DF000C00F0001800600001FE000003FF000001F
:105E00003FF000001FE00000000000000000000064
:105E10000080000001800000038000000780000077
:105E20000780000007800000078000000780000056
:105E30000780000007800000078000000780000046
:105E400001800000000000000000000000000000D1
:105E5000018000000780000007800000078000002C
:105E60000780000007800000078000000780000016
:105E70000780000007800000038000000180000010
:105E80000080000000000000000000001FE0000093
:105E90003FF00000FFF00001FFE0000000060000FE
:105EA000000F0000000F0000000F0000000F0000B6
:105EB000000F0000000F0000000F0000000F0000A6
:105EC0001FE300007FF800007FF800001FE00003E0
:105ED00000000003C0000003C0000003C000000376
:105EE000C0000003C0000003C0000003C0000003A6
:105EF000C0000001800000001FF000003FF800001B
:105F00003FFC00001FFE000000000003FF800001B6
:105F1000FFC00000FFC000007F80000000180000EC
:105F2000003C0000003C0000003C0000003C000081
:105F3000003C0000003C0000003C0000003C000071
:105F40007F8C0001FFE00001FFF000007F80000077
:105F5000000C0000003C0000003C0000003C000081
:105F6000003C0000003C0000003C0000003C000041
:105F7000003C0000001800007F800000FFC000010E
:105F8000FFC00003FF8000000000000000000002CE
:105F9000000100030003000380070003C00F00039B
:105FA000C00F0003C00F0003C00F0003C00F0003A9
:105FB000C00F0003C00F0003C00F0003C00F000399
:105FC0001FE300007FF800007FFC00001FE00000DE
:105FD00000030000000F0000000F0000000F000091
:105FE000000F0000000F0000000F0000000F000075
:105FF000000F0000000F0000000700000003000079
:106000000001000000000000000000001FFC000074
:106010003FF800003FF000001FE000018000000397
:10602000C0000003C0000003C0000003C000000364
:10603000C0000003C0000003C0000003C000000354
:106040001FE000007FF800007FF800001FE0000064
:1060500000030000000F0000000F0000000F000010
:10606000000F0000000F0000000F0000000F0000F4
:10607000000F0000000600003FE000007FF000007D
:10608000FFF00001FFE00000000000001FFC000026
:106090003FF800003FF000001FE000018000000317
:1060A000C0000003C0000003C0000003C0000003E4
:1060B000C0000003C0000003C0000003C0000003D4
:1060C0001FE000007FF800007FFC00001FE00003DD
:1060D00000030003C00F0003C00F0003C00F000344
:1060E000C00F0003C00F0003C00F0003C00F000368
:1060F000C00F0001800600001FE000003FF000001C
:106100003FF000001FE0000000000007FFE0000378
:10611000FFC00001FF880000FF18000000380000E9
:10612000007800000078000000780000007800008F
:10613000007800000078000000780000007800007F
:106140000018000000000000000000000000000037
:1061500000180000007800000078000000780000BF
:10616000007800000078000000780000007800004F
:1061700000780000007800000038000000180000DF
:106180000008000000000000000000001FE0000008
:106190003FF000003FF000001FE000018006000318
:1061A000C00F0003C00F0003C00F0003C00F0003A7
:1061B000C00F0003C00F0003C00F0003C00F000397
:1061C0001FE300007FF800007FFC00001FE00003D9
:1061D00000030003C00F0003C00F0003C00F000343
:1061E000C00F0003C00F0003C00F0003C00F000367
:1061F000C00F0001800600001FE000003FF000001B
:106200003FF000001FE00000000000001FE0000061
:106210003FF000003FF000001FE000018006000397
:10622000C00F0003C00F0003C00F0003C00F000326
:10623000C00F0003C00F0003C00F0003C00F000316
:106240001FE300007FF800007FFC00001FE000005B
:1062500000030000000F0000000F0000000F00000E
:10626000000F0000000F0000000F0000000F0000F2
:10627000000F0000000600001FE000003FF00000DB
:106280007FF00000FFE000000000000000000000C0
:1062900000000000000000000000000000000000FE
:1062A00000000000000000000000000000000000EE
:1062B00000000000000000000000000000000000DE
:1062C00000000000000000000000000000000000CE
:1062D0000000000000000000000000007800000046
:1062E00078000000780000007800000078000000CE
:1062F0007800000000000000000000000000000026
:10630000000000000000000000000000000000008D
:10631000000000000000000000000000000000007D
:106320000000000000000000070000000F800000D7
:106330000F8000000F800000070000000000000038
:10634000000000000000000000000000000000004D
:1063500000000000070000000F8000000F80000018
:106360000F80000007000000000000000000000097
:10637000000000000000000000000000000000001D
:10638000000000000000000000000000000000000D
:106390000000000000000007C006000FE00600003B
:1063A000000C003018180030181800301830003079
:1063B000183000301860003008C00007C0C0000F5F
:1063C000E080000000000000000FE0000607C000B1
:1063D000063018000C3018000C3018001830180067
:1063E000303018003030180060000000C00FE000AE
:1063F000C007C00000000000000000000000000016
:10640000000000000000000000000000000000008C
:106410000000000000000000000000000000000775
:1064200000E0000887FC00088E0300089801800740
:1064300018008000300000003000000070000000F4
:1064400060000000600000006000000060000000CC
:10645000600000007000000030000000300000000C
:1064600038000000180100000C03000007FC0000C9
:1064700001F000000000000000000000000000002B
:10648000000000000000000000000000000000000C
:1064900000000000000000000000000000000000FC
:1064A00000000000000000000000000000000000EC
:1064B00000000000000000000000000000000000DC
:1064C000000000003FF000007FF000007FE00000CF
:1064D000FFC00000000000000000000000000000FD
:1064E00000000000000000000000000000000000AC
:1064F000000000000000000000000000000000009C
:106500000000000000000000CFD40000001FF010C9
:106510001010101FF0101010101FF00440444424FD
:1065200044144814500440FFFE0000CABE0000009E
:106530003FF80000000000000000FFFE0100010025
:106540001110110821044102810205000200B2E28B
:1065500000000427C414441454855445544554156C
:106560005415542554E5542104228422442414084B
:1065700008CAD400002820241024102007FE002080
:10658000F02017E0112011101110151019CA170A68
:1065900002060002000000000000000000000000F1
:1065A00000000000000000000000000000000000EB
:1065B00000000000000000CFD40000000000000038
:1065C00007FF000F03C00C00401FF86018006008B0
:1065D00000400E01C007FF0000000001840001849C
:1065E000001987800F8CE0078C2000CC0003FFE0AF
:1065F0001FFFC000000000000000000000000000BD
:106600000000CABE000000000000000E00001FFFD6
:10661000C0007FE00000000000000000000000005B
:10662000003FC03FFFE000300000300000300006B7
:1066300013000C13C00C18F01818001818000000F4
:1066400000000000000000000000000000B2E200B6
:1066500000000000000000003039FC301FCC300783
:1066600006B00F06F01907B03137B03136F01F27EA
:10667000F00167F001E5F001E1F00041F00CF8B045
:106680003CD830008C30008030000000000000005A
:106690000000000000000000CAD40000000000005C
:1066A000000803600C03700C0330003FE0003F80E3
:1066B0000801003C0180047F80047D800C00800C78
:1066C00010C00C10C00C18400C1C600F7E600670CF
:1066D000300000300000000000000000000000005A
:1066E00000000000000000000000000000000000AA
:1066F000000000000000000000000000000000009A
:106700000000000000000000000000000000000089
:106710000000000000000000000000000000000079
:106720000000000000000000000000000000000069
:1067300050670008000000207C0000009E42000816
:10674000CC6700087C00002004040000AE42000872
:106750000000000000A24A040E06000205000D071A
:1067600005070700000200000004000011051305E2
:10677000160513051305130514050000000800484D
:106780000008004800080048000C00480004000011
:106790000008000000100000040000000000004895
:1067A000000800480014004801000000002000001C
:1067B00080000000010000000020000080000000B8
:0C67C000000102030405060708090000A0
:040000050800416945
:00000001FF
