:020000040800F2
:10400000080400207D410008D3410008CB4100088E
:10401000CF410008C5410008E5420008000000004B
:10402000000000000000000000000000FF41000848
:10403000C941000800000000FD41000801420008DD
:1040400097410008974100089741000897410008F0
:1040500097410008974100089741000897410008E0
:1040600097410008974100089741000897410008D0
:1040700097410008974100089741000897410008C0
:104080009741000897410008000000009741000890
:1040900097410008974100089741000897410008A0
:1040A0009741000897410008974100089741000890
:1040B0009741000800000000974100080000000040
:1040C0009741000800000000974100089741000850
:1040D0009741000897410008974100080000000040
:1040E0000000000000000000974100089741000810
:1040F0009741000897410008974100089741000840
:1041000097410008000000000000000097410008EF
:10411000000000000000000000000000000000009F
:10412000000000000000000000000000000000008F
:10413000000000000000000000000000000000007F
:10414000000000000000000000000000000000006F
:10415000000000000000000097410008974100089F
:104160009741000897410008DFF80CD000F018F8DC
:1041700000480047CD430008080400200648804757
:1041800006480047FEE7FEE7FEE7FEE7FEE7FEE73C
:10419000FEE7FEE7FEE7FEE7094200086941000886
:1041A000064C074D06E0E06840F0010394E8070084
:1041B00098471034AC42F6D3FFF7DAFFC445000845
:1041C000E445000800BFFEE7704700BFFEE700BF00
:1041D000FEE7704710B5002807DA0A07140E054AF3
:1041E00000F00F031B1FD45403E00A07130E024A0A
:1041F000135410BD18ED00E000E400E07047704774
:1042000010B500F08BF810BD08B53248006840F0DA
:1042100001003049086000BF2E48006810F0020F0E
:10422000FAD000BF2B48406840F080002949486020
:104230000020009002E00098401C00900098502858
:10424000F9D32448406840F090002249486000209B
:10425000009002E00098401C009000985028F9D38C
:1042600000BF1C48406820F003001A494860084617
:10427000006819490840174908600846406817490E
:1042800008401449486008464068154908401149EB
:1042900048600846406820F4400048600846C06A0C
:1042A00020F00F00C8620846006B40F243118843BB
:1042B000084908630846406B20F00100486300206D
:1042C000886000F053F900214FF0006000F0E2F840
:1042D00008BD000000100240FFFFF2FE0C00FF08C6
:1042E000FFFFC0F700BFFEE702E008C8121F08C1C9
:1042F000002AFAD170477047002001E001C1121F67
:10430000002AFBD1704700000349086000BF024942
:1043100009680029FBD170470000002004480068AC
:1043200020B103480068401E014908607047000042
:10433000000000208162704781617047F0B504463B
:104340000D4616462168E268002019E001278740E3
:104350001F4213D04FEA400C032707FA0CF7B9436A
:10436000470005FA07F739434FEA400C032707FADD
:104370000CF7BA43470006FA07F73A43471CB8B2AE
:104380001028E3D32160E260F0BDF0B50C4615467D
:10439000012C03D146681E43466002E046689E43F6
:1043A0004660826800210DE001268E401E4207D043
:1043B0004F000326BE40B2434E0005FA06F63243D4
:1043C0004E1CB1B21029EFD38260F0BD4FF4804192
:1043D000480300F05FF840F2135000F067F840F235
:1043E000145000F063F84FF4E053002201212748F5
:1043F000FFF7A4FF4FF4E053032200212348FFF707
:10440000C4FF4FF4E0512148FFF794FF042300223A
:1044100001211F48FFF792FF0423032200211C48BB
:10442000FFF7B3FF04211A48FFF784FF00F0A2F85A
:104430002AE04FF480611548FFF77EFFC820FFF7A0
:1044400063FF4FF400611148FFF776FFC820FFF7C4
:104450005BFF4FF480510D48FFF76EFFC820FFF758
:1044600053FF04210A48FFF767FFC820FFF74CFFFE
:104470004FF4E0510548FFF75DFF04210448FFF7C2
:1044800059FFC820FFF740FFD3E7000000080048AD
:10449000000C0048034A0A400243034B1A60BFF372
:1044A0004F8F704780FFFF1F08ED00E0064901EBCA
:1044B0009011096800F01F0301229A401143024A3B
:1044C00002EB9012116070470010024000200021A2
:1044D000244A126842F48032224B1A6000BF401C0A
:1044E000204A126802F4003111B9B0F5006FF6D11C
:1044F0001C4A126812F4003F00D17047194A5268F2
:10450000184B5A601A4652685A601A4652685A60E6
:104510001A465268144B1A40124B5A601A46526897
:1045200042F4E8125A601A46126842F080721A6029
:1045300000BF0C4A126812F0007FFAD0094A526894
:1045400022F00302074B5A601A46526842F00202F8
:104550005A6000BF034A526812F0080FFAD000BF39
:10456000CBE7000000100240FFFFC27710B5FFF755
:10457000ADFF10BD10B5124800684FF47A71B0FB62
:10458000F1F4601EB0F1807F01D301200FE0601EC6
:104590004FF0E02148610F214FF0FF30FFF71AFE86
:1045A00000204FF0E021886107200861002008B159
:1045B00000BFFEE70021481EFFF70CFE10BD000003
:1045C00004000020E445000800000020080000006E
:1045D000E8420008EC450008080000200004000044
:0C45E000F84200080000000000A24A049D
:040000050800416945
:00000001FF
